{
  "_format": "hh-sol-artifact-1",
  "contractName": "Credential",
  "sourceName": "contracts/Credential.sol",
  "abi": [
    {
      "inputs": [
        {
          "internalType": "address",
          "name": "student",
          "type": "address"
        }
      ],
      "name": "getCredentials",
      "outputs": [
        {
          "components": [
            {
              "internalType": "string",
              "name": "studentName",
              "type": "string"
            },
            {
              "internalType": "string",
              "name": "course",
              "type": "string"
            },
            {
              "internalType": "string",
              "name": "institution",
              "type": "string"
            },
            {
              "internalType": "string",
              "name": "issuedDate",
              "type": "string"
            }
          ],
          "internalType": "struct Credential.AcademicRecord[]",
          "name": "",
          "type": "tuple[]"
        }
      ],
      "stateMutability": "view",
      "type": "function"
    },
    {
      "inputs": [
        {
          "internalType": "address",
          "name": "student",
          "type": "address"
        },
        {
          "internalType": "string",
          "name": "name",
          "type": "string"
        },
        {
          "internalType": "string",
          "name": "course",
          "type": "string"
        },
        {
          "internalType": "string",
          "name": "institution",
          "type": "string"
        },
        {
          "internalType": "string",
          "name": "date",
          "type": "string"
        }
      ],
      "name": "issueCredential",
      "outputs": [],
      "stateMutability": "nonpayable",
      "type": "function"
    }
  ],
  "bytecode": "0x608060405234801561001057600080fd5b50610c1e806100206000396000f3fe608060405234801561001057600080fd5b50600436106100365760003560e01c8063638bf77e1461003b5780638427060814610057575b600080fd5b6100556004803603810190610050919061060d565b610087565b005b610071600480360381019061006c91906106f8565b610170565b60405161007e91906108de565b60405180910390f35b6000808673ffffffffffffffffffffffffffffffffffffffff1673ffffffffffffffffffffffffffffffffffffffff168152602001908152602001600020604051806080016040528086815260200185815260200184815260200183815250908060018154018082558091505060019003906000526020600020906004020160009091909190915060008201518160000190816101249190610b16565b50602082015181600101908161013a9190610b16565b5060408201518160020190816101509190610b16565b5060608201518160030190816101669190610b16565b5050505050505050565b60606000808373ffffffffffffffffffffffffffffffffffffffff1673ffffffffffffffffffffffffffffffffffffffff168152602001908152602001600020805480602002602001604051908101604052809291908181526020016000905b8282101561044a57838290600052602060002090600402016040518060800160405290816000820180546102039061092f565b80601f016020809104026020016040519081016040528092919081815260200182805461022f9061092f565b801561027c5780601f106102515761010080835404028352916020019161027c565b820191906000526020600020905b81548152906001019060200180831161025f57829003601f168201915b505050505081526020016001820180546102959061092f565b80601f01602080910402602001604051908101604052809291908181526020018280546102c19061092f565b801561030e5780601f106102e35761010080835404028352916020019161030e565b820191906000526020600020905b8154815290600101906020018083116102f157829003601f168201915b505050505081526020016002820180546103279061092f565b80601f01602080910402602001604051908101604052809291908181526020018280546103539061092f565b80156103a05780601f10610375576101008083540402835291602001916103a0565b820191906000526020600020905b81548152906001019060200180831161038357829003601f168201915b505050505081526020016003820180546103b99061092f565b80601f01602080910402602001604051908101604052809291908181526020018280546103e59061092f565b80156104325780601f1061040757610100808354040283529160200191610432565b820191906000526020600020905b81548152906001019060200180831161041557829003601f168201915b505050505081525050815260200190600101906101d0565b505050509050919050565b6000604051905090565b600080fd5b600080fd5b600073ffffffffffffffffffffffffffffffffffffffff82169050919050565b600061049482610469565b9050919050565b6104a481610489565b81146104af57600080fd5b50565b6000813590506104c18161049b565b92915050565b600080fd5b600080fd5b6000601f19601f8301169050919050565b7f4e487b7100000000000000000000000000000000000000000000000000000000600052604160045260246000fd5b61051a826104d1565b810181811067ffffffffffffffff82111715610539576105386104e2565b5b80604052505050565b600061054c610455565b90506105588282610511565b919050565b600067ffffffffffffffff821115610578576105776104e2565b5b610581826104d1565b9050602081019050919050565b82818337600083830152505050565b60006105b06105ab8461055d565b610542565b9050828152602081018484840111156105cc576105cb6104cc565b5b6105d784828561058e565b509392505050565b600082601f8301126105f4576105f36104c7565b5b813561060484826020860161059d565b91505092915050565b600080600080600060a086880312156106295761062861045f565b5b6000610637888289016104b2565b955050602086013567ffffffffffffffff81111561065857610657610464565b5b610664888289016105df565b945050604086013567ffffffffffffffff81111561068557610684610464565b5b610691888289016105df565b935050606086013567ffffffffffffffff8111156106b2576106b1610464565b5b6106be888289016105df565b925050608086013567ffffffffffffffff8111156106df576106de610464565b5b6106eb888289016105df565b9150509295509295909350565b60006020828403121561070e5761070d61045f565b5b600061071c848285016104b2565b91505092915050565b600081519050919050565b600082825260208201905092915050565b6000819050602082019050919050565b600081519050919050565b600082825260208201905092915050565b60005b8381101561078b578082015181840152602081019050610770565b60008484015250505050565b60006107a282610751565b6107ac818561075c565b93506107bc81856020860161076d565b6107c5816104d1565b840191505092915050565b600060808301600083015184820360008601526107ed8282610797565b915050602083015184820360208601526108078282610797565b915050604083015184820360408601526108218282610797565b9150506060830151848203606086015261083b8282610797565b9150508091505092915050565b600061085483836107d0565b905092915050565b6000602082019050919050565b600061087482610725565b61087e8185610730565b93508360208202850161089085610741565b8060005b858110156108cc57848403895281516108ad8582610848565b94506108b88361085c565b925060208a01995050600181019050610894565b50829750879550505050505092915050565b600060208201905081810360008301526108f88184610869565b905092915050565b7f4e487b7100000000000000000000000000000000000000000000000000000000600052602260045260246000fd5b6000600282049050600182168061094757607f821691505b60208210810361095a57610959610900565b5b50919050565b60008190508160005260206000209050919050565b60006020601f8301049050919050565b600082821b905092915050565b6000600883026109c27fffffffffffffffffffffffffffffffffffffffffffffffffffffffffffffffff82610985565b6109cc8683610985565b95508019841693508086168417925050509392505050565b6000819050919050565b6000819050919050565b6000610a13610a0e610a09846109e4565b6109ee565b6109e4565b9050919050565b6000819050919050565b610a2d836109f8565b610a41610a3982610a1a565b848454610992565b825550505050565b600090565b610a56610a49565b610a61818484610a24565b505050565b5b81811015610a8557610a7a600082610a4e565b600181019050610a67565b5050565b601f821115610aca57610a9b81610960565b610aa484610975565b81016020851015610ab3578190505b610ac7610abf85610975565b830182610a66565b50505b505050565b600082821c905092915050565b6000610aed60001984600802610acf565b1980831691505092915050565b6000610b068383610adc565b9150826002028217905092915050565b610b1f82610751565b67ffffffffffffffff811115610b3857610b376104e2565b5b610b42825461092f565b610b4d828285610a89565b600060209050601f831160018114610b805760008415610b6e578287015190505b610b788582610afa565b865550610be0565b601f198416610b8e86610960565b60005b82811015610bb657848901518255600182019150602085019450602081019050610b91565b86831015610bd35784890151610bcf601f891682610adc565b8355505b6001600288020188555050505b50505050505056fea26469706673582212208fe2626a7734e4c9907a69dc99ff32cf2ccc5ae1da738dde6c4fd96b547552bc64736f6c63430008130033",
  "linkReferences": {},
  "deployedLinkReferences": {}
}